S011000054455354494E475F322E7372656364
S3150000000000040020CD0500007D040000D705000097
S31500000010D7050000D7050000D7050000D70500006A
S31500000020000000000000000000000000D7050000EE
S31500000030D705000000000000D7050000D705000026
S315000000407047022818BF704740F21C4040F62C212A
S31500000050C2F20000C0F2000100F005B880B5FFF75B
S31500000060EFFF002080BD80B545F25422C5F24F0255
S315000000700260084600F002F8002080BD70B5044614
S3150000008000F05CF840F2644CEFF31080012181F33C
S315000000901088C2F2000CDCF8001039B940F60351A2
S315000000A0C4F2080100220A7040220A70DCF800102F
S315000000B00131CCF8001080F31088208810B340F688
S315000000C0000E0021C4F2080E606800EBC10292889F
S315000000D050F83130100ADD03D2B20BD50EEB801585
S315000000E055F8226026F4803645F8226023F48036DF
S315000000F045F822600EEB801040F82230208801314E
S315000001008142E1D3EFF31081012080F31088DCF8FF
S31500000110000020B1DCF800000138CCF80000DCF863
S31500000120000038B940F60350C4F2080000220270FD
S315000001308022027081F3108870BDD4D42DE9F04F6F
S3150000014081B00446008800285CD043F240084EF295
S31500000150BB4A40F6382BC4F208080026C4F2010A4E
S31500000160C0F2000B4FF00109002700BF60683BF8A2
S31500000170172000EBC600818891423CD100689AF8AE
S31500000180001000F0B85009FA07F5B0F1807F05EAD3
S31500000190010015D150B9012000F0F0F99AF80000DD
S315000001A028438AF80000012000F0BFF918F917006B
S315000001B0002820D418F8170040F0800015E000BF92
S315000001C050B1012000F0DAF99AF80000A8438AF845
S315000001D00000012000F0A9F918F91700B0F1FF3F5F
S315000001E009DC18F8170000F07F0008F81700C8208F
S315000001F0012100F0FCF80137032FB7D12088013622
S315000002008642B1D301B0BDE8F08F4EF22000C4F2B1
S315000002100100817940F200420068C2F2000252F801
S315000002202110C0F3026021FA00F040F27441C2F2DC
S31500000230000108607047D4D42DE9F0414EF2FE3437
S31500000240C4F201044CF200164AF20350C4F201064D
S3150000025020800120B08000BFB0880028FCD147F282
S3150000026000010120C4F2000130808860086040F27D
S31500000270004742F600504CF2002C4EF22005C2F226
S315000002800007C0F2311041F200214FF4004243F260
S315000002900063C0F6EB3CC4F20105C0F27A01C0F27D
S315000002A06E1387E80F00C7E9042CA879296857F868
S315000002B02000C1F3026140F27448C840C2F200084F
S315000002C0C8F8000000206075092085F8820094F8BF
S315000002D0820018B994F88300800744D094F882000D
S315000002E050B9012084F88200C820012100F07FF86F
S315000002F094F882000128FBD1002084F8830084F85A
S3150000030082000020A87400BF287F0007FCD543F2B6
S31500000310021028810020A872287F8006FCD50320C1
S31500000320307741F22120C2F2010028600520A87131
S31500000330A879296857F82000C1F30261C840C8F8B7
S31500000340000042F20800C4F20000F121017101210F
S31500000350F022017002714FF42540297485F832109D
S315000003602080BDE8F0814FF47A7000F001F8C8E70C
S315000003707047D4D4B0B543F22404C4F2080400256F
S31500000380C8200121257100F032F825702078002858
S31500000390FCD1207840F00200207000BF2078800752
S315000003A0FCD4002004F8020C14F8020C0028FBD13F
S315000003B0002004F11C0100BF11F8102002F07F029A
S315000003C001F8102011F91020002AFBD4013003286F
S315000003D0F2D1012000F0D2F84EF2BB41C4F2010185
S315000003E0002201200A70BDE8B04000F09EB840F23D
S315000003F07442C2F20002126841F20023C0F27A038C
S315000004009A4201FB00F00FD340F6FF01C0F23D0116
S3150000041011444DF68362C4F21B32A1FB0212110D88
S31500000420A0FB0101E9B11FE04CF6002348F63811A4
S31500000430C3F69A33C0F24101B3FBF2F2884207D207
S315000004404FF47A7100FB01F0B0FBF2F0800808E08F
S315000004509200B0FBF2F0884206D24FF47A7100FBAC
S3150000046001F028B100F005B84FF0FF3000F001B8F8
S31500000470704701380028FCD17047D4D42DE9F041EB
S3150000048046F22018C4F20008B8F80000B8F82010A8
S3150000049040F2244501EA0006B7B20024C2F2000584
S315000004A027FA04F0C00704D055F8241009B12046F5
S315000004B088470134102CF3D1A8F81060BDE8F0810C
S315000004C070B584B048F248040320C4F2000400F07A
S315000004D055F840F63431C0F200010E886FF0FF0087
S315000004E020604FF0FF3003900290019016B16FF03C
S315000004F0010001904EF28032002001A9CEF20002E6
S3150000050051F8203004EB8005AB6242F82030013010
S315000005100328F5D1032000F008F826B146F2003092
S31500000520C4F20000066004B070BD0122EFF3108132
S3150000053082F3108840F26842C2F2000232F81030AC
S3150000054023B132F81030013B22F8103032F8102077
S315000005508AB94EF2FE3CC4F2010C40F63632BCF8C3
S315000005600030C0F2000232F8100043F4254222EABD
S315000005700000ACF8000081F31088704780B50122B6
S31500000580EFF3108182F3108840F26842C2F2000253
S3150000059032F810308BB94EF2FE3C40F63633C4F2D8
S315000005A0010CC0F20003BCF800E033F8103043EA57
S315000005B00E0343F42543ACF8003032F81030013313
S315000005C022F8103081F3108880BDD4D400F006F8EC
S315000005D0FFF744FDFEE700BE7047D4D4B0B54EF633
S315000005E00850CEF200004FF47001C0F8801040F2BF
S315000005F00001C0F20001016000200024FFF721FD88
S31500000600FFF71AFE0120FFF71CFD40F20000C2F2C0
S31500000610000080F30A88002000F050F8FFF7F5FD8F
S31500000620FFF7A8FE0320FFF7A9FF40F61050C4F21B
S3150000063008004FF6FF7100BF20F8141001340C2C8F
S31500000640FAD10320FFF771FF0320FFF797FF04207D
S31500000650C4F20E000021016041608160C160032088
S31500000660FFF763FF0220FFF7ECFC012000F026F8FD
S3150000067040F27C44C2F20004204600F061F82046B5
S3150000068000F072F840F68E3040F68E31C0F200006F
S31500000690C0F20001081A8410012C08DB40F68E35E2
S315000006A0C0F2000555F8040B8047013CFAD1FFF76C
S315000006B007FF0020BDE8B04000F02DB8F0B581B0CE
S315000006C040F65025C0F200052E68044676B16868EB
S315000006D0071D00BF7879844204D157E90101091A40
S315000006E000F01AF8013E07F10C07F3D1AE6886B1A7
S315000006F0E86800F1080500BF6879844205D155E92C
S3150000070002022968121A00F00BF8013E05F11005E5
S31500000710F2D101B0F0BD70470A46002100F009B8D9
S3150000072010B500239A4203D0CC5CC4540133F9E7D8
S3150000073010BD00239A4208BF7047C1540133F9E740
S3150000074010B505490446054AFFF7EAFF044805497E
S315000007502044FFF7E1FF10BD40000000000000004C
S3150000076000000000000000000249401A024908602B
S31500000770704700BF080000007804002000800000D9
S315000007800000000000800000010000000080000062
S31500000790020000000080000003000000004000008E
S315000007A004000000004000000500000004000000F6
S315000007B0060000000400000007000000040000001E
S315000007C008000000008000000E000000008000000D
S315000007D00F0000000008011C000100000008011CB9
S315000007E0010100000008011C020100000008011CB4
S315000007F0030100000008011C040100000008011CA0
S31500000800050100000008011C060100000008011C8B
S31500000810070100000000010008010000000C0103B0
S315000008200B010000040C00000C010000040C000089
S315000008300D010000040C00000E010000040C000075
S315000008400F010000000C010602020000000C010668
S3150000085003020000000C010604020000000C010661
S3150000086005020000000C010606020000040C000050
S31500000870070200000000010000030000000C010652
S3150000088001030000000C010602030000040C000036
S3150000089003030000000C011105030000000C011108
S315000008A006030000000C011107030000000C0111F3
S315000008B008030000000C011109030000000C0111DF
S315000008C00A030000040C00000B03000010400000A7
S315000008D000040000000C011701040000000C0117C1
S315000008E002040000050C000003040000040C0000D4
S315000008F004040000000C011705040000000C011799
S3150000090006040000000C011307040000040C00009C
S31500000910080400001040000009040000000C010655
S315000009200A040000000C01060B040000000C01067E
S315000009300C040000000C01060D040000000C010769
S315000009400E040000000C01070F040000000C011348
S3150000095000050000000C011301050000400C010415
S3150000096005050000400C010406050000000C010707
S315000009700B050000000C01070C0500000008011C17
S31500000980000600000008011C010600000000011C12
S3150000099002060000040C000008060000000001101A
S315000009A009060000000001100A060000040C000001
S315000009B00B060000000001050D0600000000010501
S315000009C00E060000050400000F060000000C0117CB
S315000009D000070000000C011701070000000C0117BA
S315000009E002070000000C011703070000000C0117A6
S315000009F004070000000C0117050700000040000076
S31500000A00060700000000011407070000000C01069D
S31500000A10080700001040000005090000000C011442
S31500000A20000B0000000C0114010B00005600000032
S31500000A307C07000000000000020403040404D4D470
S31500000A400000006800000068000000200000002090
S31500000A5005000000680A000009000000A40A000062
S31500000A6002000000400A0000000000680000006864
S31500000A70000100080000006800000068000100088E
S31500000A800000002000000020000000031C040020DD
S31500000A907C040020000000037C0400207C0400206D
S31500000AA0000000030000006800000068000000600D
S31500000AB000010C08000000680000006800000070DB
S31500000AC00001090800000068000000680000000836
S31500000AD000010208000000680000006840000000F5
S31500000AE00001010800000020000000200000006056
S31500000AF000010C0300000020000000200000007030
S31500000B00000109030000002000000020000000088A
S31500000B10000002030000002000000020400000004A
S31500000B20000001037C0400207C040020400000003B
S31500000B300000010300000100020008001000200070
S31500000B4000000406362E342E30004275696C74207F
S31500000B50776974682052656E6573617320416476A7
S31500000B60616E63656420466C657869626C652053C6
S31500000B706F667477617265205061636B616765208B
S31300000B8076657273696F6E20362E342E300045
S3090100A100FFFFFFFF58
S3090100A200FFFDFFFF59
S3090100A280F8F8FFFFE5
S705000005CD28
