S011000054455354494E475F322E7372656364
S113000000100020A50D00009D0D00009D0D0000B6
S11300109D0D00009D0D00009D0D00009D0D000034
S11300200000000000000000000000009D0D000022
S11300309D0D0000000000009D0D00009D0D0000BE
S11300409D0D00009D0D00009D0D00009D0D000004
S11300509D0D00009D0D00009D0D00009D0D0000F4
S11300609D0D00009D0D00009D0D00009D0D0000E4
S11300709D0D00009D0D00009D0D00009D0D0000D4
S11300809D0D00009D0D00009D0D00009D0D0000C4
S11300909D0D00009D0D00009D0D00009D0D0000B4
S11300A09D0D00009D0D00009D0D00009D0D0000A4
S11300B09D0D00009D0D00009D0D00009D0D000094
S11300C09D0D00009D0D00009D0D00009D0D000084
S11300D09D0D00009D0D00009D0D00009D0D000074
S11300E09D0D00009D0D00009D0D00009D0D000064
S11300F09D0D00009D0D00009D0D00009D0D000054
S11301009D0D00009D0D00009D0D00009D0D000043
S11301109D0D00009D0D00009D0D00009D0D000033
S11301209D0D00009D0D00009D0D00009D0D000023
S11301309D0D00009D0D00009D0D00009D0D000013
S11301409D0D00009D0D00009D0D00009D0D000003
S11301509D0D00009D0D00009D0D00009D0D0000F3
S11301609D0D00009D0D00009D0D00009D0D0000E3
S11301709D0D00009D0D00009D0D00009D0D0000D3
S11301809D0D00009D0D00009D0D00009D0D0000C3
S11301909D0D00009D0D00009D0D00009D0D0000B3
S11301A09D0D00009D0D00009D0D00009D0D0000A3
S11301B09D0D00009D0D00009D0D00009D0D000093
S11301C00348044B834202D0034B03B118477047E2
S11301D0CC0E0000CC0E000000000000064B0749C6
S11301E0C91A891048BF0131491003D0044B0BB11F
S11301F001481847704700BFCC0E0000CC0E000029
S11302000000000010B5064C237843B9FFF7D8FF6F
S1130210044B13B10448AFF300800123237010BDD5
S11302200010002000000000C001000008B5054BCC
S11302301BB105490548AFF30080BDE80840FFF74E
S1130240CDBF00BF0000000004100020C00100006A
S113025080B483B000AF0346FB71FB792F2B06D922
S1130260FB79392B03D8FB79303BDBB20AE0FB790D
S1130270402B06D9FB79422B03D8FB79373BDBB201
S113028000E0002318460C37BD465DF8047B704738
S113029090B585B000AF0446084611461A46234679
S11302A0FB710346BB710B467B7113463B71FB79B3
S11302B01846FFF7CDFF0346FB73674B00221A7005
S11302C0654B40221A70FB7B9B011A46BB799B004D
S11302D01A44624B13441A46002313607B79013B92
S11302E0072B00F2838001A252F823F00D030000D3
S11302F0ED030000C1030000ED030000ED03000066
S1130300390300006503000091030000FB7B9B019F
S11303101A46BB799B001A44504B13441A68FB7B62
S11303209B011946BB799B0019444C4B0B4419465D
S113033042F010030B605AE0FB7B9B011A46BB7929
S11303409B001A44454B13441A68FB7B9B011946D6
S1130350BB799B001944414B0B44194642F04003BE
S11303600B6044E0FB7B9B011A46BB799B001A445B
S11303703A4B13441A68FB7B9B011946BB799B00DB
S11303801944364B0B44194642F480330B602EE07B
S1130390FB7B9B011A46BB799B001A442F4B1344E9
S11303A01A68FB7B9B011946BB799B0019442B4BB4
S11303B00B44194642F4803343F040030B6016E0CB
S11303C0FB7B9B011A46BB799B001A44234B1344C5
S11303D01A68FB7B9B011946BB799B0019441F4B90
S11303E00B44194642F400430B6000E000BF1A4B73
S11303F000221A70184B80221A703B79002B14D1FA
S1130400FB7B5A01164B13441B8899B2BB7901221A
S113041002FA03F39BB2DB439AB2FB7B5801104B05
S113042003440A4092B21A8011E0FB7B5A010C4B40
S113043013441B8899B2BB79012202FA03F39AB2DE
S1130440FB7B5801064B03440A4392B21A8000BF57
S11304501437BD4690BD00BF030D08400008084096
S11304600200084080B584B000AF0346FB710B4620
S1130470BB7113467B71FB791846FFF7E9FE03460F
S1130480FB737B79012B0BD1BA79FB7B5B0103F105
S1130490804303F108131946012393400B600BE0DA
S11304A0BB7901229A40FB7B5B0103F1804303F19A
S11304B00813194613040B6000BF1037BD4680BDF6
S11304C080B483B000AF0346FB71FB79092B5DD880
S11304D001A252F823F000BF010500000F0500003F
S11304E01D0500002B05000039050000470500002C
S11304F05505000063050000710500007F0500003C
S1130500264B1B68254A23F0004313603FE0234B2E
S11305101B68224A23F08043136038E01F4B1B689A
S11305201E4A23F00053136031E01C4B1B681B4A26
S113053023F0805313602AE0184B1B68174A23F0FA
S11305400063136023E0154B1B68144A23F0806397
S113055013601CE0114B1B68104A23F000731360F6
S113056015E00E4B1B680D4A23F0807313600EE0F8
S11305700A4B1B68094A23F40003136007E0074B86
S11305801B68064A23F48003136000E000BF00BF29
S11305900C37BD465DF8047B704700BF00E701409F
S11305A080B400AF044B4AF203521A8000BFBD4628
S11305B05DF8047B704700BFFEE3014080B400AFE8
S11305C0044B4FF425421A8000BFBD465DF8047BFE
S11305D0704700BFFEE3014080B582B000AF034620
S11305E0FB71FFF7DDFFFB791846FFF769FFFFF7A3
S11305F0E5FF00BF0837BD4680BD000080B485B06C
S113060000AF0346FB71FB79092B00F2FA8001A2CB
S113061052F823F03D06000053060000690600006E
S11306207F06000095060000AB060000C10600002E
S1130630D7060000ED060000030700000123FB734A
S11306400123BB7301237B7300233B730423BB602F
S113065062E00723FB730923BB7307237B7308231F
S11306603B730523BB6057E00323FB730223BB7377
S113067003237B7301233B730423BB604CE00323FC
S1130680FB730A23BB7303237B7309233B73052387
S1130690BB6041E00223FB730523BB7302237B731E
S11306A006233B730423BB6036E00523FB7301235D
S11306B0BB7305237B7302233B730523BB602BE0D1
S11306C00523FB730623BB7305237B7305233B734D
S11306D00423BB6020E00623FB730D23BB730623B6
S11306E07B730E233B730523BB6015E00A23FB7366
S11306F00023BB7306237B7307233B730423BB6074
S11307000AE00123FB730923BB7301237B730A23D0
S11307103B730523BB6000BF3D4B00221A703C4B6A
S113072040221A707B7B9B011A463B7B9B001A4438
S1130730384B13441A46BB681B0213607B7B9B0136
S11307401A463B7B9B001A44324B13441A687B7B4A
S11307509B0119463B7B9B0019442E4B0B441946C5
S113076042F480330B607B7B5A012B4B13441B8870
S113077099B23B7B012202FA03F39BB2DB439AB2A8
S11307807B7B5801244B03440A4092B21A80FB7BC2
S11307909B011A46BB7B9B001A441E4B13441A460A
S11307A0BB681B021360FB7B9B011A46BB7B9B004F
S11307B01A44184B13441A68FB7B9B011946BB7BF4
S11307C09B001944134B0B44194642F480330B60CD
S11307D0FB7B5A01104B13441B8899B2BB7B01224B
S11307E002FA03F39AB2FB7B58010B4B03440A430E
S11307F092B21A80064B00221A70054B80221A709E
S113080000E000BF1437BD465DF8047B704700BFAD
S1130810030D0840000808400200084080B588B075
S113082000AF03463960FB71FB79092B00F29A8013
S113083001A252F823F000BF610800007B08000009
S113084095080000AF080000C9080000E308000094
S1130850FD08000017090000310900004B090000E1
S11308600023FB72534BFB61534BBB61534B7B61C6
S1130870534B3B61534BFB6075E00123FB72524BBE
S1130880FB61524BBB61524B7B61524B3B61524B00
S1130890FB6068E00223FB72504BFB61504BBB6171
S11308A0504B7B61504B3B61504BFB605BE003233F
S11308B0FB724F4BFB614F4BBB614F4B7B614F4B0B
S11308C03B614F4BFB604EE00423FB724D4BFB61DD
S11308D04D4BBB614D4B7B614D4B3B614D4BFB60C5
S11308E041E00523FB724C4BFB614C4BBB614C4B11
S11308F07B614C4B3B614C4BFB6034E00623FB7249
S11309004A4BFB614A4BBB614A4B7B614A4B3B619F
S11309104A4BFB6027E00723FB72494BFB61494BC1
S1130920BB61494B7B61494B3B61494BFB601AE01E
S11309300823FB72474BFB61474BBB61474B7B6111
S1130940474B3B61474BFB600DE00923FB72464B71
S1130950FB61464BBB61464B7B61464B3B61464B5F
S1130960FB6000E000BFFB7ADBB21846FFF734FE01
S1130970FB791846FFF742FE7B6900221A70FB6977
S113098000221A70FB6860221A703B681B013B4A04
S1130990B2FBF3F3DBB2013BDAB2BB691A703B6919
S11309A000221A707B6930221A7000BF2037BD46BE
S11309B080BD00BF008011400180114002801140C1
S11309C004801140078011400081114001811140D1
S11309D002811140048111400781114000821140BD
S11309E001821140028211400482114007821140A9
S11309F0008311400183114002831140048311409C
S1130A000783114000841140018411400284114085
S1130A100484114007841140008511400185114070
S1130A20028511400485114007851140008611405C
S1130A300186114002861140048611400786114048
S1130A40008711400187114002871140048711403B
S1130A500787114000881140018811400288114025
S1130A600488114007881140008911400189114010
S1130A7002891140048911400789114080841E00B5
S1130A8080B485B000AF03460A46FB711346BB71C0
S1130A90FB79092B48D801A252F823F0C50A0000BB
S1130AA0CF0A0000D90A0000E30A0000ED0A0000A2
S1130AB0F70A0000010B00000B0B0000150B0000EF
S1130AC01F0B0000254BFB60254BBB602DE0254B25
S1130AD0FB60254BBB6028E0244BFB60244BBB60D0
S1130AE023E0244BFB60244BBB601EE0234BFB60E4
S1130AF0234BBB6019E0234BFB60234BBB6014E02A
S1130B00224BFB60224BBB600FE0224BFB60224B6D
S1130B10BB600AE0214BFB60214BBB6005E0214B2D
S1130B20FB60214BBB6000E000BF00BFBB681B78CB
S1130B30DBB25BB2002BF9DABA79FB681A70BB68D6
S1130B401B78DBB203F07F03DAB2BB681A7000BF14
S1130B501437BD465DF8047B704700BF0380114025
S1130B60048011400381114004811140038211402B
S1130B700482114003831140048311400384114013
S1130B8004841140038511400485114003861140FB
S1130B9004861140038711400487114003881140E3
S1130BA004881140038911400489114080B582B042
S1130BB000AF03463960FB7109E03B685A1C3A6098
S1130BC093F90020FB7911461846FFF759FF3B685B
S1130BD093F90030002BF0D100BF00BF0837BD46A9
S1130BE080BD80B485B000AF78607B684FF47A62D2
S1130BF002FB03F3FB6000E000BFFB685A1EFA60CF
S1130C00002BF9D100BF00BF1437BD465DF8047B4B
S1130C10704780B500AF0123052206213020FFF77D
S1130C2037FB012206213020FFF71CFC00BF80BDEA
S1130C3080B584B000AF786039600023FB6012E0B7
S1130C40002206213020FFF70DFC3868FFF7C9FFAA
S1130C50012206213020FFF705FC3868FFF7C1FFA9
S1130C60FB680133FB60FA687B689A42E8D300BFF3
S1130C7000BF1037BD4680BD80B586B000AF0346C7
S1130C80FB71FB79072B08D1224B3B61224BFB60A4
S1130C9000BF42F210737B6104E0002335E00120C1
S1130CA0FFF79FFFFB681B78DBB25BB2002B04DB12
S1130CB07B695A1E7A61002BF1D17B69002B01D12B
S1130CC0002322E03B6954221A70FB681B78DBB2D4
S1130CD003F07F03DAB2FB681A7042F210737B618F
S1130CE002E00120FFF77DFFFB681B78DBB25BB2FB
S1130CF0002B04DB7B695A1E7A61002BF1D17B69DE
S1130D00002B14BF01230023DBB218461837BD465D
S1130D1080BD00BF038711400487114080B582B0B5
S1130D2000AFFFF776FF4FF4E1310720FFF776FDC0
S1130D300720FFF7A1FF0346FB71FB79002B1AD0B4
S1130D4012490720FFF732FF11490720FFF72EFF52
S1130D5010490720FFF72AFF0F490720FFF726FF56
S1130D604FF4FA710120FFF763FF4FF4FA70FFF7B5
S1130D7038FF00BFF0E74FF4FA710220FFF758FF85
S1130D804FF47A70FFF72DFFF5E700BF3C0E00002B
S1130D90580E0000940E0000B00E000080B400AFA6
S1130DA000BFFDE780B584B000AF1C4B1B681B4A35
S1130DB043F470031360BFF34F8FBFF36F8F184B6F
S1130DC0FB60184BBB6007E0FA68131DFB60BB684F
S1130DD0191DB96012681A60BB68134A9342F3D3B1
S1130DE0124BBB6004E0BB681A1DBA6000221A6093
S1130DF0BB680F4A9342F6D30E4B7B6005E07B68D9
S1130E001B6898477B6804337B607B680A4A93427B
S1130E10F5D3FFF783FF00BFFDE700BF88ED00E0D7
S1130E20C00100000000002000000020001000208D
S1130E301C100020CC0E0000D00E0000554152546E
S1130E40372073656C662D74657374205041535359
S1130E5045440D0A0000000041637475616C206212
S1130E6061756420726174653A207E3132353030A8
S1130E70302028736574207465726D696E616C200E
S1130E80746F2031323530303020384E31290D0A1C
S1130E9000000000436F6E6E6563742054583D502B
S1130EA03631332C2052583D503631340D0A00006F
S1130EB05241364D3520554152543720616C697684
S1070EC0650D0A00AE
S1070EC4F8B500BFBA
S1070EC8F8B500BFB6
S1070ECC2D020000EF
S1070ED00502000013
S9030DA54A
